{
  "transactions": [
    {
      "hash": "0xbd92c050261497c3844854d4d8533f2f9717e611ab321fdfb74a45fb5c8c7f03",
      "transactionType": "CALL",
      "contractName": null,
      "contractAddress": "0xa85b4b440d9281b7a0a8f276a5ec5783cbbee036",
      "function": "setDaoToken(address)",
      "arguments": [
        "0xc24884Af50054207292997C983C860FF6F795C09"
      ],
      "transaction": {
        "from": "0x34a132a8a19b72661b58e46a6eb25ac44b73cac5",
        "to": "0xa85b4b440d9281b7a0a8f276a5ec5783cbbee036",
        "gas": "0x10c30",
        "value": "0x0",
        "input": "0xfb0a8cd0000000000000000000000000c24884af50054207292997c983c860ff6f795c09",
        "nonce": "0x30",
        "chainId": "0x868b"
      },
      "additionalContracts": [],
      "isFixedGasLimit": false
    }
  ],
  "receipts": [
    {
      "status": "0x1",
      "cumulativeGasUsed": "0x162c4",
      "logs": [],
      "logsBloom": "0x00000000000000000000000000000000000000000000000000000000000000000000000000000000000000000000000000000000000000000000000000000000000000000000000000000000000000000000000000000000000000000000000000000000000000000000000000000000000000000000000000000000000000000000000000000000000000000000000000000000000000000000000000000000000000000000000000000000000000000000000000000000000000000000000000000000000000000000000000000000000000000000000000000000000000000000000000000000000000000000000000000000000000000000000000000000",
      "type": "0x2",
      "transactionHash": "0xbd92c050261497c3844854d4d8533f2f9717e611ab321fdfb74a45fb5c8c7f03",
      "transactionIndex": "0x1",
      "blockHash": "0x2d2fd002206297cef1fa92bf0170930cd9321e62aa84efd6ddf653f24f80d8e2",
      "blockNumber": "0x11bd8a2",
      "gasUsed": "0xb761",
      "effectiveGasPrice": "0xfd",
      "from": "0x34a132a8a19b72661b58e46a6eb25ac44b73cac5",
      "to": "0xa85b4b440d9281b7a0a8f276a5ec5783cbbee036",
      "contractAddress": null,
      "l1BaseFeeScalar": "0x4e20",
      "l1BlobBaseFee": "0xf8e6a4",
      "l1BlobBaseFeeScalar": "0x95506",
      "l1Fee": "0x9d60b18957",
      "l1GasPrice": "0x4e929d808",
      "l1GasUsed": "0x640"
    }
  ],
  "libraries": [],
  "pending": [],
  "returns": {},
  "timestamp": 1737371875,
  "chain": 34443,
  "commit": "cc9e53a"
}